{
  "_format": "hh-sol-artifact-1",
  "contractName": "StakingEther",
  "sourceName": "contracts/StakingEther.sol",
  "abi": [
    {
      "inputs": [],
      "stateMutability": "payable",
      "type": "constructor"
    },
    {
      "inputs": [],
      "name": "MaximumNumberOfStakesForUserReached",
      "type": "error"
    },
    {
      "inputs": [],
      "name": "MaximumStakingDurationExceeded",
      "type": "error"
    },
    {
      "inputs": [],
      "name": "OwnerCannotStakeInContract",
      "type": "error"
    },
    {
      "inputs": [],
      "name": "StakeAlreadyWithdrawn",
      "type": "error"
    },
    {
      "inputs": [],
      "name": "StakeTimeHasEnded",
      "type": "error"
    },
    {
      "inputs": [],
      "name": "StakeTimeHasNotEnded",
      "type": "error"
    },
    {
      "inputs": [],
      "name": "UserHasNoStakes",
      "type": "error"
    },
    {
      "inputs": [],
      "name": "UserStakeDoesNotExist",
      "type": "error"
    },
    {
      "inputs": [],
      "name": "WithdrawalFailed",
      "type": "error"
    },
    {
      "inputs": [],
      "name": "ZeroAddressNotAllowed",
      "type": "error"
    },
    {
      "inputs": [],
      "name": "ZeroAmountNotAllowed",
      "type": "error"
    },
    {
      "anonymous": false,
      "inputs": [],
      "name": "StakeDeposited",
      "type": "event"
    },
    {
      "anonymous": false,
      "inputs": [],
      "name": "StakeWithdrawn",
      "type": "event"
    },
    {
      "inputs": [
        {
          "internalType": "uint8",
          "name": "_userStakeId",
          "type": "uint8"
        }
      ],
      "name": "getCurrentStakeBalance",
      "outputs": [
        {
          "internalType": "uint256",
          "name": "",
          "type": "uint256"
        }
      ],
      "stateMutability": "view",
      "type": "function"
    },
    {
      "inputs": [],
      "name": "getUserStakes",
      "outputs": [
        {
          "components": [
            {
              "internalType": "uint256",
              "name": "amount",
              "type": "uint256"
            },
            {
              "internalType": "uint256",
              "name": "endReward",
              "type": "uint256"
            },
            {
              "internalType": "bool",
              "name": "isWithdrawn",
              "type": "bool"
            },
            {
              "internalType": "uint256",
              "name": "endTime",
              "type": "uint256"
            },
            {
              "internalType": "uint256",
              "name": "startTime",
              "type": "uint256"
            }
          ],
          "internalType": "struct StakingEther.Stake[]",
          "name": "",
          "type": "tuple[]"
        }
      ],
      "stateMutability": "view",
      "type": "function"
    },
    {
      "inputs": [],
      "name": "owner",
      "outputs": [
        {
          "internalType": "address",
          "name": "",
          "type": "address"
        }
      ],
      "stateMutability": "view",
      "type": "function"
    },
    {
      "inputs": [
        {
          "internalType": "uint64",
          "name": "_duration",
          "type": "uint64"
        }
      ],
      "name": "stake",
      "outputs": [],
      "stateMutability": "payable",
      "type": "function"
    },
    {
      "inputs": [
        {
          "internalType": "uint8",
          "name": "_userStakeId",
          "type": "uint8"
        }
      ],
      "name": "withdraw",
      "outputs": [],
      "stateMutability": "payable",
      "type": "function"
    }
  ],
  "bytecode": "0x6080604052336000806101000a81548173ffffffffffffffffffffffffffffffffffffffff021916908373ffffffffffffffffffffffffffffffffffffffff1602179055506000341161007e576040517f0f43956a00000000000000000000000000000000000000000000000000000000815260040160405180910390fd5b6110858061008d6000396000f3fe60806040526004361061004a5760003560e01c80633a29dbae1461004f5780638da5cb5b1461006b578063a5ba1ca914610096578063c6ab5d90146100c1578063f612b839146100dd575b600080fd5b61006960048036038101906100649190610c1b565b61011a565b005b34801561007757600080fd5b5061008061044a565b60405161008d9190610c89565b60405180910390f35b3480156100a257600080fd5b506100ab61046e565b6040516100b89190610def565b60405180910390f35b6100db60048036038101906100d69190610e4a565b61062f565b005b3480156100e957600080fd5b5061010460048036038101906100ff9190610e4a565b610944565b6040516101119190610e86565b60405180910390f35b600073ffffffffffffffffffffffffffffffffffffffff163373ffffffffffffffffffffffffffffffffffffffff1603610180576040517f8579befe00000000000000000000000000000000000000000000000000000000815260040160405180910390fd5b60008054906101000a900473ffffffffffffffffffffffffffffffffffffffff1673ffffffffffffffffffffffffffffffffffffffff163373ffffffffffffffffffffffffffffffffffffffff1603610205576040517f40a2cff400000000000000000000000000000000000000000000000000000000815260040160405180910390fd5b6000341161023f576040517f0f43956a00000000000000000000000000000000000000000000000000000000815260040160405180910390fd5b6003600160003373ffffffffffffffffffffffffffffffffffffffff1673ffffffffffffffffffffffffffffffffffffffff16815260200190815260200160002080549050106102bb576040517f98940e7200000000000000000000000000000000000000000000000000000000815260040160405180910390fd5b622819a063ffffffff168167ffffffffffffffff161115610308576040517f80bc67cd00000000000000000000000000000000000000000000000000000000815260040160405180910390fd5b60008167ffffffffffffffff16426103209190610ed0565b905060006040518060a0016040528034815260200161034c34600742876103479190610f04565b610b97565b8152602001600015158152602001838152602001428152509050600160003373ffffffffffffffffffffffffffffffffffffffff1673ffffffffffffffffffffffffffffffffffffffff168152602001908152602001600020819080600181540180825580915050600190039060005260206000209060050201600090919091909150600082015181600001556020820151816001015560408201518160020160006101000a81548160ff021916908315150217905550606082015181600301556080820151816004015550507f4b3071e82111349c1b61b7406df389c97ec7ee3fe251d73ddfcc0647daca7a7b60405160405180910390a1505050565b60008054906101000a900473ffffffffffffffffffffffffffffffffffffffff1681565b6060600073ffffffffffffffffffffffffffffffffffffffff163373ffffffffffffffffffffffffffffffffffffffff16036104d6576040517f8579befe00000000000000000000000000000000000000000000000000000000815260040160405180910390fd5b6000600160003373ffffffffffffffffffffffffffffffffffffffff1673ffffffffffffffffffffffffffffffffffffffff1681526020019081526020016000208054905003610552576040517f06fc599e00000000000000000000000000000000000000000000000000000000815260040160405180910390fd5b600160003373ffffffffffffffffffffffffffffffffffffffff1673ffffffffffffffffffffffffffffffffffffffff168152602001908152602001600020805480602002602001604051908101604052809291908181526020016000905b8282101561062657838290600052602060002090600502016040518060a001604052908160008201548152602001600182015481526020016002820160009054906101000a900460ff1615151515815260200160038201548152602001600482015481525050815260200190600101906105b1565b50505050905090565b600073ffffffffffffffffffffffffffffffffffffffff163373ffffffffffffffffffffffffffffffffffffffff1603610695576040517f8579befe00000000000000000000000000000000000000000000000000000000815260040160405180910390fd5b6000600160003373ffffffffffffffffffffffffffffffffffffffff1673ffffffffffffffffffffffffffffffffffffffff16815260200190815260200160002080549050148061072b5750600160003373ffffffffffffffffffffffffffffffffffffffff1673ffffffffffffffffffffffffffffffffffffffff168152602001908152602001600020805490508160ff1610155b15610762576040517fe657f15000000000000000000000000000000000000000000000000000000000815260040160405180910390fd5b6000600160003373ffffffffffffffffffffffffffffffffffffffff1673ffffffffffffffffffffffffffffffffffffffff1681526020019081526020016000208260ff16815481106107b8576107b7610f38565b5b906000526020600020906005020190508060020160009054906101000a900460ff1615610811576040517f64141f3400000000000000000000000000000000000000000000000000000000815260040160405180910390fd5b428160030154111561084f576040517fca2657d700000000000000000000000000000000000000000000000000000000815260040160405180910390fd5b60018160020160006101000a81548160ff02191690831515021790555060003373ffffffffffffffffffffffffffffffffffffffff16826001015460405161089690610f98565b60006040518083038185875af1925050503d80600081146108d3576040519150601f19603f3d011682016040523d82523d6000602084013e6108d8565b606091505b5050905080610913576040517f27fcd9d100000000000000000000000000000000000000000000000000000000815260040160405180910390fd5b7f43a0cf0d0a48969b58f39c4ef52df638b444e2522d7e32d0364e107c7db2a95460405160405180910390a1505050565b60008073ffffffffffffffffffffffffffffffffffffffff163373ffffffffffffffffffffffffffffffffffffffff16036109ab576040517f8579befe00000000000000000000000000000000000000000000000000000000815260040160405180910390fd5b6000600160003373ffffffffffffffffffffffffffffffffffffffff1673ffffffffffffffffffffffffffffffffffffffff168152602001908152602001600020805490501480610a415750600160003373ffffffffffffffffffffffffffffffffffffffff1673ffffffffffffffffffffffffffffffffffffffff168152602001908152602001600020805490508260ff1610155b15610a78576040517fe657f15000000000000000000000000000000000000000000000000000000000815260040160405180910390fd5b6000600160003373ffffffffffffffffffffffffffffffffffffffff1673ffffffffffffffffffffffffffffffffffffffff1681526020019081526020016000208360ff1681548110610ace57610acd610f38565b5b90600052602060002090600502016040518060a001604052908160008201548152602001600182015481526020016002820160009054906101000a900460ff161515151581526020016003820154815260200160048201548152505090504281606001511015610b6a576040517f8a6895f200000000000000000000000000000000000000000000000000000000815260040160405180910390fd5b6000816080015142610b7c9190610f04565b9050610b8e8260000151600783610b97565b92505050919050565b600063bbf81e00828460ff1686610bae9190610fad565b610bb89190610fad565b610bc2919061101e565b84610bcd9190610ed0565b90509392505050565b600080fd5b600067ffffffffffffffff82169050919050565b610bf881610bdb565b8114610c0357600080fd5b50565b600081359050610c1581610bef565b92915050565b600060208284031215610c3157610c30610bd6565b5b6000610c3f84828501610c06565b91505092915050565b600073ffffffffffffffffffffffffffffffffffffffff82169050919050565b6000610c7382610c48565b9050919050565b610c8381610c68565b82525050565b6000602082019050610c9e6000830184610c7a565b92915050565b600081519050919050565b600082825260208201905092915050565b6000819050602082019050919050565b6000819050919050565b610ce381610cd0565b82525050565b60008115159050919050565b610cfe81610ce9565b82525050565b60a082016000820151610d1a6000850182610cda565b506020820151610d2d6020850182610cda565b506040820151610d406040850182610cf5565b506060820151610d536060850182610cda565b506080820151610d666080850182610cda565b50505050565b6000610d788383610d04565b60a08301905092915050565b6000602082019050919050565b6000610d9c82610ca4565b610da68185610caf565b9350610db183610cc0565b8060005b83811015610de2578151610dc98882610d6c565b9750610dd483610d84565b925050600181019050610db5565b5085935050505092915050565b60006020820190508181036000830152610e098184610d91565b905092915050565b600060ff82169050919050565b610e2781610e11565b8114610e3257600080fd5b50565b600081359050610e4481610e1e565b92915050565b600060208284031215610e6057610e5f610bd6565b5b6000610e6e84828501610e35565b91505092915050565b610e8081610cd0565b82525050565b6000602082019050610e9b6000830184610e77565b92915050565b7f4e487b7100000000000000000000000000000000000000000000000000000000600052601160045260246000fd5b6000610edb82610cd0565b9150610ee683610cd0565b9250828201905080821115610efe57610efd610ea1565b5b92915050565b6000610f0f82610cd0565b9150610f1a83610cd0565b9250828203905081811115610f3257610f31610ea1565b5b92915050565b7f4e487b7100000000000000000000000000000000000000000000000000000000600052603260045260246000fd5b600081905092915050565b50565b6000610f82600083610f67565b9150610f8d82610f72565b600082019050919050565b6000610fa382610f75565b9150819050919050565b6000610fb882610cd0565b9150610fc383610cd0565b9250828202610fd181610cd0565b91508282048414831517610fe857610fe7610ea1565b5b5092915050565b7f4e487b7100000000000000000000000000000000000000000000000000000000600052601260045260246000fd5b600061102982610cd0565b915061103483610cd0565b92508261104457611043610fef565b5b82820490509291505056fea264697066735822122048dc9d5e00dd0df032a34e31d443e518bfd6dae07576fa70378204de2ffd7fd964736f6c63430008180033",
  "linkReferences": {},
  "deployedLinkReferences": {}
}