{
  "_format": "hh-sol-artifact-1",
  "contractName": "StakingERC20",
  "sourceName": "contracts/StakingERC20.sol",
  "abi": [
    {
      "inputs": [
        {
          "internalType": "address",
          "name": "_tokenAddress",
          "type": "address"
        }
      ],
      "stateMutability": "nonpayable",
      "type": "constructor"
    },
    {
      "inputs": [],
      "name": "InsufficientTokenAmountFromSender",
      "type": "error"
    },
    {
      "inputs": [],
      "name": "MaximumNumberOfStakesForUserReached",
      "type": "error"
    },
    {
      "inputs": [],
      "name": "MaximumStakingDurationExceeded",
      "type": "error"
    },
    {
      "inputs": [],
      "name": "OwnerCannotStakeInContract",
      "type": "error"
    },
    {
      "inputs": [],
      "name": "StakeAlreadyWithdrawn",
      "type": "error"
    },
    {
      "inputs": [],
      "name": "StakeTimeHasEnded",
      "type": "error"
    },
    {
      "inputs": [],
      "name": "StakeTimeHasNotEnded",
      "type": "error"
    },
    {
      "inputs": [],
      "name": "UserHasNoStakes",
      "type": "error"
    },
    {
      "inputs": [],
      "name": "WithdrawalFailed",
      "type": "error"
    },
    {
      "inputs": [],
      "name": "YouAreNotTheOwner",
      "type": "error"
    },
    {
      "inputs": [],
      "name": "ZeroAddressNotAllowed",
      "type": "error"
    },
    {
      "inputs": [],
      "name": "ZeroAmountNotAllowed",
      "type": "error"
    },
    {
      "anonymous": false,
      "inputs": [
        {
          "indexed": true,
          "internalType": "address",
          "name": "sender",
          "type": "address"
        },
        {
          "indexed": false,
          "internalType": "uint256",
          "name": "amount",
          "type": "uint256"
        }
      ],
      "name": "DepositIntoContractSuccessful",
      "type": "event"
    },
    {
      "anonymous": false,
      "inputs": [],
      "name": "StakeDeposited",
      "type": "event"
    },
    {
      "anonymous": false,
      "inputs": [],
      "name": "StakeWithdrawn",
      "type": "event"
    },
    {
      "inputs": [
        {
          "internalType": "uint256",
          "name": "_amount",
          "type": "uint256"
        }
      ],
      "name": "depositIntoContract",
      "outputs": [],
      "stateMutability": "nonpayable",
      "type": "function"
    },
    {
      "inputs": [
        {
          "internalType": "uint8",
          "name": "_userStakeId",
          "type": "uint8"
        }
      ],
      "name": "getCurrentStakeBalance",
      "outputs": [
        {
          "internalType": "uint256",
          "name": "",
          "type": "uint256"
        }
      ],
      "stateMutability": "view",
      "type": "function"
    },
    {
      "inputs": [],
      "name": "getUserStakes",
      "outputs": [
        {
          "components": [
            {
              "internalType": "uint256",
              "name": "amount",
              "type": "uint256"
            },
            {
              "internalType": "uint256",
              "name": "endReward",
              "type": "uint256"
            },
            {
              "internalType": "bool",
              "name": "isWithdrawn",
              "type": "bool"
            },
            {
              "internalType": "uint256",
              "name": "endTime",
              "type": "uint256"
            },
            {
              "internalType": "uint256",
              "name": "startTime",
              "type": "uint256"
            }
          ],
          "internalType": "struct StakingERC20.Stake[]",
          "name": "",
          "type": "tuple[]"
        }
      ],
      "stateMutability": "view",
      "type": "function"
    },
    {
      "inputs": [],
      "name": "owner",
      "outputs": [
        {
          "internalType": "address",
          "name": "",
          "type": "address"
        }
      ],
      "stateMutability": "view",
      "type": "function"
    },
    {
      "inputs": [
        {
          "internalType": "uint256",
          "name": "_amount",
          "type": "uint256"
        },
        {
          "internalType": "uint64",
          "name": "_duration",
          "type": "uint64"
        }
      ],
      "name": "stake",
      "outputs": [],
      "stateMutability": "nonpayable",
      "type": "function"
    },
    {
      "inputs": [],
      "name": "tokenAddress",
      "outputs": [
        {
          "internalType": "address",
          "name": "",
          "type": "address"
        }
      ],
      "stateMutability": "view",
      "type": "function"
    },
    {
      "inputs": [
        {
          "internalType": "uint8",
          "name": "_userStakeId",
          "type": "uint8"
        }
      ],
      "name": "withdraw",
      "outputs": [],
      "stateMutability": "nonpayable",
      "type": "function"
    }
  ],
  "bytecode": "0x60806040523480156200001157600080fd5b50604051620017ec380380620017ec833981810160405281019062000037919062000129565b336000806101000a81548173ffffffffffffffffffffffffffffffffffffffff021916908373ffffffffffffffffffffffffffffffffffffffff16021790555080600160006101000a81548173ffffffffffffffffffffffffffffffffffffffff021916908373ffffffffffffffffffffffffffffffffffffffff160217905550506200015b565b600080fd5b600073ffffffffffffffffffffffffffffffffffffffff82169050919050565b6000620000f182620000c4565b9050919050565b6200010381620000e4565b81146200010f57600080fd5b50565b6000815190506200012381620000f8565b92915050565b600060208284031215620001425762000141620000bf565b5b6000620001528482850162000112565b91505092915050565b611681806200016b6000396000f3fe608060405234801561001057600080fd5b506004361061007d5760003560e01c80639d76ea581161005b5780639d76ea58146100d8578063a5ba1ca9146100f6578063c6ab5d9014610114578063f612b839146101305761007d565b8063048579be146100825780638da5cb5b1461009e578063952e68cf146100bc575b600080fd5b61009c600480360381019061009791906110ec565b610160565b005b6100a6610454565b6040516100b3919061115a565b60405180910390f35b6100d660048036038101906100d191906111b5565b610478565b005b6100e0610926565b6040516100ed919061115a565b60405180910390f35b6100fe61094c565b60405161010b9190611336565b60405180910390f35b61012e60048036038101906101299190611391565b610b0d565b005b61014a60048036038101906101459190611391565b610e1f565b60405161015791906113cd565b60405180910390f35b600073ffffffffffffffffffffffffffffffffffffffff163373ffffffffffffffffffffffffffffffffffffffff16036101c6576040517f8579befe00000000000000000000000000000000000000000000000000000000815260040160405180910390fd5b60008054906101000a900473ffffffffffffffffffffffffffffffffffffffff1673ffffffffffffffffffffffffffffffffffffffff163373ffffffffffffffffffffffffffffffffffffffff161461024b576040517fd0ba76be00000000000000000000000000000000000000000000000000000000815260040160405180910390fd5b60008111610285576040517f0f43956a00000000000000000000000000000000000000000000000000000000815260040160405180910390fd5b6000600160009054906101000a900473ffffffffffffffffffffffffffffffffffffffff1673ffffffffffffffffffffffffffffffffffffffff166370a08231336040518263ffffffff1660e01b81526004016102e2919061115a565b602060405180830381865afa1580156102ff573d6000803e3d6000fd5b505050506040513d601f19601f8201168201806040525081019061032391906113fd565b90508181101561035f576040517fce5f487200000000000000000000000000000000000000000000000000000000815260040160405180910390fd5b600160009054906101000a900473ffffffffffffffffffffffffffffffffffffffff1673ffffffffffffffffffffffffffffffffffffffff166323b872dd3330856040518463ffffffff1660e01b81526004016103be9392919061142a565b6020604051808303816000875af11580156103dd573d6000803e3d6000fd5b505050506040513d601f19601f82011682018060405250810190610401919061148d565b503373ffffffffffffffffffffffffffffffffffffffff167f2d652cc074007db4dde0365f9b43c5384331768e87e9081d6339970e25be3f288360405161044891906113cd565b60405180910390a25050565b60008054906101000a900473ffffffffffffffffffffffffffffffffffffffff1681565b600073ffffffffffffffffffffffffffffffffffffffff163373ffffffffffffffffffffffffffffffffffffffff16036104de576040517f8579befe00000000000000000000000000000000000000000000000000000000815260040160405180910390fd5b60008054906101000a900473ffffffffffffffffffffffffffffffffffffffff1673ffffffffffffffffffffffffffffffffffffffff163373ffffffffffffffffffffffffffffffffffffffff1603610563576040517f40a2cff400000000000000000000000000000000000000000000000000000000815260040160405180910390fd5b6000821161059d576040517f0f43956a00000000000000000000000000000000000000000000000000000000815260040160405180910390fd5b6003600260003373ffffffffffffffffffffffffffffffffffffffff1673ffffffffffffffffffffffffffffffffffffffff1681526020019081526020016000208054905010610619576040517f98940e7200000000000000000000000000000000000000000000000000000000815260040160405180910390fd5b622819a063ffffffff168167ffffffffffffffff161115610666576040517f80bc67cd00000000000000000000000000000000000000000000000000000000815260040160405180910390fd5b6000600160009054906101000a900473ffffffffffffffffffffffffffffffffffffffff1673ffffffffffffffffffffffffffffffffffffffff166370a08231336040518263ffffffff1660e01b81526004016106c3919061115a565b602060405180830381865afa1580156106e0573d6000803e3d6000fd5b505050506040513d601f19601f8201168201806040525081019061070491906113fd565b905082811015610740576040517fce5f487200000000000000000000000000000000000000000000000000000000815260040160405180910390fd5b600160009054906101000a900473ffffffffffffffffffffffffffffffffffffffff1673ffffffffffffffffffffffffffffffffffffffff166323b872dd3330866040518463ffffffff1660e01b815260040161079f9392919061142a565b6020604051808303816000875af11580156107be573d6000803e3d6000fd5b505050506040513d601f19601f820116820180604052508101906107e2919061148d565b5060008267ffffffffffffffff16426107fb91906114e9565b905060006040518060a001604052808681526020016108268760078867ffffffffffffffff16611072565b8152602001600015158152602001838152602001428152509050600260003373ffffffffffffffffffffffffffffffffffffffff1673ffffffffffffffffffffffffffffffffffffffff168152602001908152602001600020819080600181540180825580915050600190039060005260206000209060050201600090919091909150600082015181600001556020820151816001015560408201518160020160006101000a81548160ff021916908315150217905550606082015181600301556080820151816004015550507f4b3071e82111349c1b61b7406df389c97ec7ee3fe251d73ddfcc0647daca7a7b60405160405180910390a15050505050565b600160009054906101000a900473ffffffffffffffffffffffffffffffffffffffff1681565b6060600073ffffffffffffffffffffffffffffffffffffffff163373ffffffffffffffffffffffffffffffffffffffff16036109b4576040517f8579befe00000000000000000000000000000000000000000000000000000000815260040160405180910390fd5b6000600260003373ffffffffffffffffffffffffffffffffffffffff1673ffffffffffffffffffffffffffffffffffffffff1681526020019081526020016000208054905003610a30576040517f06fc599e00000000000000000000000000000000000000000000000000000000815260040160405180910390fd5b600260003373ffffffffffffffffffffffffffffffffffffffff1673ffffffffffffffffffffffffffffffffffffffff168152602001908152602001600020805480602002602001604051908101604052809291908181526020016000905b82821015610b0457838290600052602060002090600502016040518060a001604052908160008201548152602001600182015481526020016002820160009054906101000a900460ff161515151581526020016003820154815260200160048201548152505081526020019060010190610a8f565b50505050905090565b600073ffffffffffffffffffffffffffffffffffffffff163373ffffffffffffffffffffffffffffffffffffffff1603610b73576040517f8579befe00000000000000000000000000000000000000000000000000000000815260040160405180910390fd5b6000600260003373ffffffffffffffffffffffffffffffffffffffff1673ffffffffffffffffffffffffffffffffffffffff168152602001908152602001600020805490501480610c095750600260003373ffffffffffffffffffffffffffffffffffffffff1673ffffffffffffffffffffffffffffffffffffffff168152602001908152602001600020805490508160ff1610155b15610c40576040517f06fc599e00000000000000000000000000000000000000000000000000000000815260040160405180910390fd5b6000600260003373ffffffffffffffffffffffffffffffffffffffff1673ffffffffffffffffffffffffffffffffffffffff1681526020019081526020016000208260ff1681548110610c9657610c9561151d565b5b906000526020600020906005020190508060020160009054906101000a900460ff1615610cef576040517f64141f3400000000000000000000000000000000000000000000000000000000815260040160405180910390fd5b4281600301541115610d2d576040517fca2657d700000000000000000000000000000000000000000000000000000000815260040160405180910390fd5b60018160020160006101000a81548160ff021916908315150217905550600160009054906101000a900473ffffffffffffffffffffffffffffffffffffffff1673ffffffffffffffffffffffffffffffffffffffff1663a9059cbb3383600101546040518363ffffffff1660e01b8152600401610dab92919061154c565b6020604051808303816000875af1158015610dca573d6000803e3d6000fd5b505050506040513d601f19601f82011682018060405250810190610dee919061148d565b507f43a0cf0d0a48969b58f39c4ef52df638b444e2522d7e32d0364e107c7db2a95460405160405180910390a15050565b60008073ffffffffffffffffffffffffffffffffffffffff163373ffffffffffffffffffffffffffffffffffffffff1603610e86576040517f8579befe00000000000000000000000000000000000000000000000000000000815260040160405180910390fd5b6000600260003373ffffffffffffffffffffffffffffffffffffffff1673ffffffffffffffffffffffffffffffffffffffff168152602001908152602001600020805490501480610f1c5750600260003373ffffffffffffffffffffffffffffffffffffffff1673ffffffffffffffffffffffffffffffffffffffff168152602001908152602001600020805490508260ff1610155b15610f53576040517f06fc599e00000000000000000000000000000000000000000000000000000000815260040160405180910390fd5b6000600260003373ffffffffffffffffffffffffffffffffffffffff1673ffffffffffffffffffffffffffffffffffffffff1681526020019081526020016000208360ff1681548110610fa957610fa861151d565b5b90600052602060002090600502016040518060a001604052908160008201548152602001600182015481526020016002820160009054906101000a900460ff161515151581526020016003820154815260200160048201548152505090504281606001511015611045576040517f8a6895f200000000000000000000000000000000000000000000000000000000815260040160405180910390fd5b60008160800151426110579190611575565b90506110698260000151600783611072565b92505050919050565b600063bbf81e00828460ff168661108991906115a9565b61109391906115a9565b61109d919061161a565b846110a891906114e9565b90509392505050565b600080fd5b6000819050919050565b6110c9816110b6565b81146110d457600080fd5b50565b6000813590506110e6816110c0565b92915050565b600060208284031215611102576111016110b1565b5b6000611110848285016110d7565b91505092915050565b600073ffffffffffffffffffffffffffffffffffffffff82169050919050565b600061114482611119565b9050919050565b61115481611139565b82525050565b600060208201905061116f600083018461114b565b92915050565b600067ffffffffffffffff82169050919050565b61119281611175565b811461119d57600080fd5b50565b6000813590506111af81611189565b92915050565b600080604083850312156111cc576111cb6110b1565b5b60006111da858286016110d7565b92505060206111eb858286016111a0565b9150509250929050565b600081519050919050565b600082825260208201905092915050565b6000819050602082019050919050565b61122a816110b6565b82525050565b60008115159050919050565b61124581611230565b82525050565b60a0820160008201516112616000850182611221565b5060208201516112746020850182611221565b506040820151611287604085018261123c565b50606082015161129a6060850182611221565b5060808201516112ad6080850182611221565b50505050565b60006112bf838361124b565b60a08301905092915050565b6000602082019050919050565b60006112e3826111f5565b6112ed8185611200565b93506112f883611211565b8060005b8381101561132957815161131088826112b3565b975061131b836112cb565b9250506001810190506112fc565b5085935050505092915050565b6000602082019050818103600083015261135081846112d8565b905092915050565b600060ff82169050919050565b61136e81611358565b811461137957600080fd5b50565b60008135905061138b81611365565b92915050565b6000602082840312156113a7576113a66110b1565b5b60006113b58482850161137c565b91505092915050565b6113c7816110b6565b82525050565b60006020820190506113e260008301846113be565b92915050565b6000815190506113f7816110c0565b92915050565b600060208284031215611413576114126110b1565b5b6000611421848285016113e8565b91505092915050565b600060608201905061143f600083018661114b565b61144c602083018561114b565b61145960408301846113be565b949350505050565b61146a81611230565b811461147557600080fd5b50565b60008151905061148781611461565b92915050565b6000602082840312156114a3576114a26110b1565b5b60006114b184828501611478565b91505092915050565b7f4e487b7100000000000000000000000000000000000000000000000000000000600052601160045260246000fd5b60006114f4826110b6565b91506114ff836110b6565b9250828201905080821115611517576115166114ba565b5b92915050565b7f4e487b7100000000000000000000000000000000000000000000000000000000600052603260045260246000fd5b6000604082019050611561600083018561114b565b61156e60208301846113be565b9392505050565b6000611580826110b6565b915061158b836110b6565b92508282039050818111156115a3576115a26114ba565b5b92915050565b60006115b4826110b6565b91506115bf836110b6565b92508282026115cd816110b6565b915082820484148315176115e4576115e36114ba565b5b5092915050565b7f4e487b7100000000000000000000000000000000000000000000000000000000600052601260045260246000fd5b6000611625826110b6565b9150611630836110b6565b9250826116405761163f6115eb565b5b82820490509291505056fea2646970667358221220d4df9a010e5f17c0acb7bbeebaa83200593ce62e9c326b880347b4b4389181e064736f6c63430008180033",
  "linkReferences": {},
  "deployedLinkReferences": {}
}